:03000000020800F3
:0C080000787FE4F6D8FD758112020847ED
:0C0905000A09F9A4B0999282F88090C011
:03000B0002088C5C
:10088C00C0E0C0F0C083C082C0D075D000C000C032
:10089C0001C002C003C004C005C006C00775080033
:1008AC0074092508F8E6F5A01208DB0508E508C36D
:1008BC00940A40ECD007D006D005D004D003D00267
:0F08CC00D001D000D0D0D082D083D0F0D0E03295
:0D08F800758902758C0175A882D28C80FE76
:1008DB00E4FFFEE4FDFC0DBD00010CED64A04C70CB
:0C08EB00F50FBF00010EBE02EABFBCE723
:0108F70022DE
:10080C000208F8E493A3F8E493A34003F68001F202
:10081C0008DFF48029E493A3F85407240CC8C333ED
:10082C00C4540F4420C8834004F456800146F6DFBC
:10083C00E4800B0102040810204080900905E47E3E
:10084C00019360BCA3FF543F30E509541FFEE493B1
:10085C00A360010ECF54C025E060A840B8E493A378
:10086C00FAE493A3F8E493A3C8C582C8CAC583CAA3
:10087C00F0A3C8C582C8CAC583CADFE9DEE780BE5B
:0109110000E5
:00000001FF
