:03000000020800F3
:0C080000787FE4F6D8FD758112020847ED
:0C096A000A09F9A4B0999282F88090C0AC
:03000B0002092BBC
:10092B00C0E0C0D075D000C00074092508F8E6F50A
:08093B00A0D000D0D0D0E032C2
:0300030002088C64
:10088C00C0E0C0F0C083C082C0D075D000C000C032
:10089C0001C002C003C004C005C006C0070508E5BE
:1008AC0008B40A0375080012095B74092508F8E6F8
:1008BC00F5A030B2FDD007D006D005D004D003D0BF
:1008CC0002D001D000D0D0D082D083D0F0D0E03292
:030013000208DC04
:1008DC00C0E0C0F0C083C082C0D075D000C000C0E2
:1008EC0001C002C003C004C005C006C007E5087003
:1008FC000375080A150812095B74092508F8E6F552
:10090C00A030B3FDD007D006D005D004D003D00260
:0F091C00D001D000D0D0D082D083D0F0D0E03244
:10094300758902758C0175A887D28C75080974099D
:080953002508F8E6F5A080FE7E
:0E095B00E4FFFE0FBF00010EEF64054E70F5C5
:01096900226B
:10080C00020943E493A3F8E493A34003F68001F2B6
:10081C0008DFF48029E493A3F85407240CC8C333ED
:10082C00C4540F4420C8834004F456800146F6DFBC
:10083C00E4800B010204081020408090096AE47ED9
:10084C00019360BCA3FF543F30E509541FFEE493B1
:10085C00A360010ECF54C025E060A840B8E493A378
:10086C00FAE493A3F8E493A3C8C582C8CAC583CAA3
:10087C00F0A3C8C582C8CAC583CADFE9DEE780BE5B
:010976000080
:00000001FF
