:030000000208AA49
:0C08AA00787FE4F6D8FD75817D0208F12E
:1009360008738040100804020100206608FFC0B753
:1009460077B7C0FF006E6E6E91FF817E7E7EBDFF23
:10095600007E7E7E81FF006E6E6E7EFF006F6F6F83
:100966007FFF817E7E76B9FF00EFEFEF00FFFF7E0F
:10097600007EFFFFF97E7E017FFF00E7DBBD7EFF85
:1009860000FEFEFEFEFF807F817F80FF00BFC3FD6D
:1009960000FF817E7E7E81FF807777778FFF817E65
:0309A6007E81FE51
:10080000E4F56EF56FF571F572F570F57BF57CC268
:10081000A6C2A5C2A1C2A0E4F571E4F572E4F57D1B
:10082000AF7DA807E57B088002C313D8FC1392A212
:10083000C2A0D2A0057DE57DB408E5C2A1D2A17415
:10084000732572F8E6F57BE4F57DAF7DA807E57CBE
:10085000088002C313D8FC1392A7C2A5D2A5057DB8
:10086000E57DB408E5C2A6D2A67F017E001209AAE2
:10087000056FE56FB46603E4F56F7408256FF8E65D
:10088000F57C0572E572C39408409285706FE5703F
:10089000B46603E4F5700571E571C3940F5003026B
:0A08A000081A057085706F02081732
:1009AA00E4FDFCC3ED9FEC9E5015E4FBFA0BBB0083
:0F09BA00010ABA27F8BB10F50DBD00010C80E44F
:0109C900220B
:1008B600020800E493A3F8E493A34003F68001F250
:1008C60008DFF48029E493A3F85407240CC8C33343
:1008D600C4540F4420C8834004F456800146F6DF12
:1008E600E4800B0102040810204080900936E47E63
:1008F600019360BCA3FF543F30E509541FFEE49307
:10090600A360010ECF54C025E060A840B8E493A3CD
:10091600FAE493A3F8E493A3C8C582C8CAC583CAF8
:10092600F0A3C8C582C8CAC583CADFE9DEE780BEB0
:0109A900004D
:00000001FF
