:030000000208688B
:0C086800787FE4F6D8FD7581080208587E
:03002300020800D0
:10080000C0E0C0F0C083C082C0D075D000C000C0BE
:1008100001C002C003C004C005C006C0073099046F
:10082000C2998019859908E508B43105B2A012086B
:100830007CE508B43205B2A112087CC298D007D07A
:1008400006D005D004D003D002D001D000D0D0D043
:0808500082D083D0F0D0E03229
:10085800758920758DFD759850D28E75A89080FE8B
:080874008F993099FDC2992211
:06087C00E4FF0FBF05FCC4
:010882002253
:00000001FF
