:0300000002089063
:0C089000787FE4F6D8FD758107020800AF
:10080000E4FFFED2A6D2A720A6100FBF00010E3033
:10081000A6FDEF64094E7002FEFF20A7EAEE70E726
:10082000EF14B4080050E090083575F003A4C583B8
:1008300025F0C5837302084D0208510208550208CD
:100840005902085D02086102086502086CB28080E6
:1008500016B2818012B282800EB283800AB2848086
:1008600006B2858002B286E4FEFF809BB287E4FE7A
:03087000FF809472
:10087300E4FFFEE4FDFC0DBD00010CED64A54C702E
:0C088300F50FBF00010EBE03EABFE8E75E
:01088F002246
:00000001FF
