:03000000020A4DA4
:0C0A4D00787FE4F6D8FD7581100208F6F1
:070A7700454550524F4D00B0
:1008F60078087C007D007BFF7A0A79777E007F0787
:100906001208D07F0A7E0012098F1209F2E4F50F51
:10091600F510AD1074082DF8E6FFE4FB1209D205B8
:1009260010E5107002050FC3940FE50F940040E226
:10093600E4F50FF510AF10E4FD120958120A590537
:1009460010E5107002050FC3940FE50F940040E503
:0209560080FE21
:0A0A59008FA0D285120987C2872200
:0A0A63008FA0C285120987C2872206
:1009F2007F647E0012098F7F38120A637F0E120A0B
:060A0200637F01020A639C
:08098700C286D2877F017E00C9
:10098F00E4FDFCC3ED9FEC9E5015E4FBFA0BBB009E
:0F099F00010ABA01F8BBF4F50DBD00010C80E4AC
:0109AE002226
:070A1D007F1E120A24D2B073
:0A0A2400E4FEEEC39F50030E80F8BD
:010A2E0022A5
:0F0A2F00C2B0D2B1120A1DC2B1120A24C2B02243
:0F0A3E00C2B07F1E120A24C2B1120A1FD2B12207
:0A0A6D00C2B1120A1DC2B0020A2431
:100A0800E4FEEF3392B1D2B0C2B0EF25E0FF0EBEE4
:050A180008F0020A6D68
:1009AF00E4FDFC7F14120A24D2B0A2B1E433420555
:1009BF00ECC394075004ED25E0FDC2B00CBC08E376
:0209CF00AF0572
:0109D1002203
:1009D200AC07120A2FEB25E044A0FF120A08AF056C
:1009E200120A08AF04120A08120A3E7F0A020A24F7
:02095800AC07EA
:10095A00120A2FED25E044A0FF120A08AF04120A7A
:10096A0008120A2FED25E0440AFF120A081209AFFD
:0C097A00AD07120A3E7F05120A24AF05EB
:01098600224E
:10080000E709F608DFFA8046E709F208DFFA803EDA
:1008100088828C83E709F0A3DFFA8032E309F608C7
:10082000DFFA8078E309F208DFFA807088828C832F
:10083000E309F0A3DFFA806489828A83E0A3F608E3
:10084000DFFA805889828A83E0A3F208DFFA804CBD
:1008500080D280FA80C680D4806980F28033801094
:1008600080A680EA809A80A880DA80E280CA8033FD
:1008700089828A83ECFAE493A3C8C582C8CCC58375
:10088000CCF0A3C8C582C8CCC583CCDFE9DEE78045
:100890000D89828A83E493A3F608DFF9ECFAA9F0C4
:1008A000EDFB2289828A83ECFAE0A3C8C582C8CC1A
:1008B000C583CCF0A3C8C582C8CCC583CCDFEADE33
:1008C000E880DB89828A83E493A3F208DFF980CC95
:1008D00088F0EF60010E4E60C388F0ED2402B4048E
:1008E0000050B9F582EB2402B4040050AF23234535
:0608F00082239008507302
:00000001FF
