:0300000002095A98
:0C095A00787FE4F6D8FD75810A020800E1
:1008B40045534920416C6769657273203230323286
:1008C400203230323300416264657373616D656454
:0108D4000023
:100800007F0A7E00120873120920E4FF1209667B3A
:10081000FF7A0879B412084A7F0312096D7BFF7AC8
:100820000879CA12084A7F2C7E011208737F0612CB
:1008300008937F0F1208D57F2C7E011208737F0664
:0A0840001208937F0F1208EE80FEED
:100920007F647E001208737F381209367F0E120929
:06093000367F01020936CA
:100936008FA0C290C291D2927F017E00120873C22C
:020946009222FB
:10084A008B088A09890AAB08AA09A90A120907604A
:10085A0013050AE50A7002050914F9120907FF12BD
:05086A00094880E222B4
:0208D5008F088A
:1008D700E4F509E509C39508500C7F18120936128B
:0608E700086F050980ED19
:0108ED0022E8
:0208EE008F0871
:1008F000E4F509E509C39508500C7F1C120936126E
:06090000086F050980EDFF
:0109060022CE
:100948008FA0D290C291D2927F017E00120873C20A
:020958009222E9
:020893008F08CC
:10089500E4F509E509C3950850147F0A12093612D3
:0E08A500086F7F0E12093612086F050980E5F4
:0108B3002222
:07096600EF2480FF020936B7
:07096D00EF24C0FF02093670
:04086F007FC87E00C0
:10087300E4FDFCC3ED9FEC9E5015E4FBFA0BBB00BB
:0F088300010ABA01F8BBF4F50DBD00010C80E4C9
:010892002243
:10090700BB010689828A83E0225002E722BBFE02EE
:09091700E32289828A83E4932221
:00000001FF
